:060000000A128A110E280D
:10000800FE00030EF2000408F3000A08F4000A12C6
:100018008A110D290A128A11112883133E30FD0016
:100028000230FE002E30FF00343084000A128A119C
:100038001F220A128A11BE01BF01C001C101C201FB
:10004800C301F501F601F701F80183010A128A11CB
:10005800AB29831203130808AF00B0012F08C000B2
:100068003008C1004108B0004008AF000310AF0DD0
:10007800B00D0310AF0DB00D2F08C2003008C3003B
:10008800430D430CBF00420CBE006430A600003094
:10009800A7003F08A9003E08A8000A128A11A42058
:1000A8000A128A11831203132608AF002F08F600DC
:1000B8000A30A6000030A7007608AF00B0012F086C
:1000C800A0003008A1009C30A200FF30A3000A1253
:1000D8008A11DD210A128A11831203133E082007B0
:1000E800A8003F0803183F0A2107A9000A128A112D
:1000F800A4200A128A11831203132608B1003108BA
:10010800F7009C30AF002F08A00076080A128A1169
:1001180004220A128A1183120313B000F630B100C8
:100128003108A00077080A128A1104220A128A11DB
:100138008312031330073E07B2003208F8000800A4
:1001480083120313AC01A71FAA28AB28B228A6095B
:10015800A709A60A0319A70AAC01AC0AA91FB52862
:10016800B628BF28A809A909A80A0319A90A0130AD
:10017800AA002A08AC06AD01AE0126082704031917
:10018800C628C728FE28AB01AB0AD52801300310C2
:10019800A60DA70DFF3E031DCB280130AA002A0893
:1001A800AB07A71FD828D928CA2801300310AD0DDE
:1001B800AE0DFF3E031DDA2827082902031DE62895
:1001C80026082802031CE928EA28F1282608A8029C
:1001D8002708031CA903A9022D1401300310A70C3A
:1001E800A60CFF3E031DF2280130AB02031DFD28BB
:1001F800FE28D9282C080319022903290829AD0942
:10020800AE09AD0A0319AE0A2E08A7002D08A600EC
:1002180008000B1D102911294C290B11FF308312DE
:1002280003138100382989017608343E840083133A
:1002380000088700091487170130F0007008F507D7
:100248004B2989017708343E84008313000887000E
:100258008914202989017808343E84008313000812
:1002680087000915F5014B297508F000F10171089F
:10027800003A031940294B297008003A0319172935
:10028800013A03192529033A03192E294B290B1181
:10029800831203130C1F5129522961291F0CF000E6
:1002A800700C0F390B3A031D5A295B295E291E0869
:1002B800850060291E0888000C1374088A007308DA
:1002C8008400720E8300FE0E7E0E0900831603174B
:1002D80088010C30890083160313850101308600DC
:1002E800870188018901831203138501860187012B
:1002F80088018901831603130F088F3930388F005E
:100308000F14811201128111011581140114FF309B
:100318008312031381000B118B163F309F051F08B2
:10032800C33928389F00831603139F131F129F1287
:10033800831203130C13831603130C170B178B1755
:10034800A529A629A729831203131F1408000A1236
:100358008A116A210A128A11B129B229B329831292
:1003680003139F14831203139F18BB29BC29D42994
:100378001F0CB300330C0F390B3A031DC429C529D0
:10038800CA291F08C33928389F00CE291F08C33936
:100398002C389F00CF29D029D129831203139F1409
:1003A8000A128A112D200A128A11B6290A128A11F4
:1003B8000E2883120313A401A501201CE429E529B2
:1003C800EB292208A4070318A50A2308A50701306A
:1003D8000310A20DA30DFF3E031DEC2901300310ED
:1003E800A10CA00CFF3E031DF32920082104031DC6
:1003F800FE29FF29E1292508A1002408A0000800FA
:1004080083120313A300A201231C0B2A0C2A102A0F
:100418002008A1002108A2070310A00D0310A30CB7
:100428002308031D182A192A082A220808007E080A
:100438008A007F0882000A128A111B220A128A1176
:100448008000840A04087D0603190034FF0A031992
:10045800FE0A1F2A3F3406345B344F3466346D3449
:080468007D3407347F34673452
:08400000FF3FFF3FFF3FFF3FC0
:04400E00D420FF3F7C
:00000001FF
